:100000000C94BE000C94E6000C94E6000C94E60000
:100010000C94E6000C94E6000C94E6000C94E600C8
:100020000C94E6000C94E6000C9478030C94F50311
:100030000C94E6000C94E6000C94E6000C94E600A8
:100040000C94E6000C94E6000C94E6000C94E60098
:100050000C94E6000C94E6000C94E6000C94270641
:100060000C94E6000C94E6000C94E6000C94E60078
:100070000C94E6000C94E6000C94E6000C94E60068
:100080000C94E6000C94E6000C94E6000C94E60058
:100090000C94E6000C94E6000C94E6000C94E60048
:1000A0000C94E6000C94E6000C94E600080B0002A9
:1000B0000202000009040000010202000005240001
:1000C0001001052401010104240206052406000193
:1000D0000705810310004009040100020A00000026
:1000E00007050202400000070583024000000403E8
:1000F000090412010002EF02014041233C8000018B
:100100000102030141726475696E6F204C4C43001B
:1001100041726475696E6F204573706C6F72610017
:1001200000000000250028002B002E0031000000F8
:100130000000240027002A002D00300004040404DD
:10014000040304050202020204030202020206067C
:100150000606060604040202020404040802011052
:1001600040804010204080408008020401804020F0
:1001700010020110801020404020710611241FBE83
:10018000CFEFDAE0DEBFCDBF11E0A0E0B1E0ECEAF6
:10019000FFE002C005900D92AA36B107D9F722E020
:1001A000AAE6B1E001C01D92AC3EB207E1F710E053
:1001B000CEEBD0E004C02197FE010E94CE07CD3BDC
:1001C000D107C9F70E94A6060C94D4070C9400002E
:1001D000FC0180918802882311F13FB7F89482E0F6
:1001E0008093E9002091F200822F90E01816190602
:1001F00014F481E090E0882339F0289844E6409395
:1002000087024091F1004083222339F02091F200CF
:10021000211103C02BE62093E8003FBF08958FEF24
:100220009FEF089583E08093E9008091F200882396
:1002300019F08AE38093E80008952FB7F89483E0DB
:100240008093E9009091E800892F807295FF04C0A7
:100250009091F20080E4891B2FBF089580917F0266
:1002600081110DC082E080937B0284E080937C0248
:1002700010927E0210927D0281E080937F028BE7D4
:1002800092E008950C941201409171015091720115
:1002900020916F013091700142175307B4F490918F
:1002A000E8009570E1F39091E80092FD19C0809309
:1002B000F100809171019091720101968F739927DD
:1002C000892B19F48EEF8093E80080917101909151
:1002D00072010196909372018093710181E00895FB
:1002E00080E00895EF92FF920F931F93CF93DF93D7
:1002F000F82E192FE62E042F81E0860F880F0E941A
:10030000440183E00E944401CF2DD12FEC0EFD2E3D
:10031000F11CCE15DF05B9F007FF13C0FE01849173
:100320000E944401182F80E00E94440181232196FD
:100330008111EFCFDF91CF911F910F91FF90EF903F
:1003400008958881EDCF81E0F5CFDF92EF92FF92A3
:100350000F931F93CF93DF93D82E8A01EB017B017C
:10036000E40EF51ECE15DF0559F0D7FE12C0FE01D2
:1003700084910E94440121968111F4CF0FEF1FEF69
:10038000C801DF91CF911F910F91FF90EF90DF9007
:1003900008958881EECF0F931F93CF93DF931F9221
:1003A000CDB7DEB782E0898342E450E06CEA70E0CA
:1003B00080E80E94A5010E942E01DC0112960D9199
:1003C0001C910115110589F0D801ED91FC91028075
:1003D000F381E02DBE016F5F7F4FC801099597FD46
:1003E00004C0F80100851185ECCF89810F90DF9161
:1003F000CF911F910F910895615030F02091F1003D
:10040000FC0120830196F8CF289884E68093870228
:100410000895CF93DF931F92CDB7DEB76983DC01D8
:10042000ED91FC910280F381E02D41E050E0BE01AE
:100430006F5F7F4F09950F90DF91CF9108950E94D4
:100440001D0190E00895CF93DF931F92CDB7DEB7E3
:10045000FC018485958597FD08C02FEF3FEF358718
:1004600024870F90DF91CF910895CE0101960E94CD
:10047000E800019719F4898190E0F3CF8FEF9FEFA7
:10048000F0CF0F931F93CF93DF931F92CDB7DEB7BB
:100490008C01FC018485958597FF0BC0CE010196E8
:1004A0000E94E800019771F4898190E0F801958736
:1004B0008487F801848595850F90DF91CF911F91F6
:1004C0000F9108958FEF9FEFF1CFFC018485958503
:1004D00097FD0BC09FB7F89482E08093E90080916C
:1004E000F2009FBF90E0019608959FB7F89482E0D4
:1004F0008093E9008091F2009FBF90E008953FB79C
:10050000F89480916B0190916C01A0916D01B09174
:100510006E0126B5A89B05C02F3F19F00196A11DBD
:10052000B11D3FBFBA2FA92F982F8827BC01CD013D
:10053000620F711D811D911D42E0660F771F881F9C
:10054000991F4A95D1F708958F929F92AF92BF92CB
:10055000CF92DF92EF92FF924B015C010E947F02EB
:100560006B017C010E947F026C197D098E099F0935
:10057000683E734081059105A8F321E0821A910835
:10058000A108B10888EEC80E83E0D81EE11CF11C5A
:1005900081149104A104B10429F7FF90EF90DF903A
:1005A000CF90BF90AF909F908F9008958F929F9221
:1005B000AF92BF92CF92DF92EF92FF920F931F9371
:1005C000CF93DF936C017B018A0180910B0188231B
:1005D00009F45CC080918802882309F457C0809197
:1005E000750180FF05C08091E00082608093E0008B
:1005F000E801B12C8AEFA82E93E0892E2AE3922EEF
:10060000209711F4BB20D9F10E941D0181110AC06D
:10061000AA94AA20D9F161E070E080E090E00E9405
:10062000A402EECF8C171D0611F00CF08C2F9FB793
:10063000F8948092E9002091E80025FD02C09FBF58
:10064000DFCF282F30E0C21BD30BF701815020F001
:1006500041914093F100FACFE20EF31EBB2021F04E
:100660009092E800B12CEBCF8091E80085FDE7CFB8
:100670009092E800BB24B394209709F3F3CF5D98E0
:1006800084E680937401101611063CF081E090E03E
:10069000F6019383828310E000E0C801DF91CF91DF
:1006A0001F910F91FF90EF90DF90CF90BF90AF9090
:1006B0009F908F900895CF93DF93FC0101900020CD
:1006C000E9F73197AF01481B590BBC0189E892E06B
:1006D0000E94D602EC0142E050E065E271E089E858
:1006E00092E00E94D6028C0F9D1FDF91CF9108955A
:1006F0001F920F920FB60F9211242F933F934F9397
:100700005F936F937F938F939F93AF93BF93CF9399
:10071000EF93FF93C091E1008091E100837F80938C
:10072000E100C3FF0FC01092E90081E08093EB006D
:100730001092EC0082E38093ED001092880288E032
:100740008093F000C2FF1AC00E94120180917401D0
:10075000882341F08091740181508093740181114C
:1007600001C05D9A80918702882341F080918702C1
:10077000815080938702811101C0289AC4FF23C051
:100780008091E2008E7E81608093E2008091E100A2
:100790008F7E8093E100809175018E7E80618093D1
:1007A0007501FF91EF91CF91BF91AF919F918F9183
:1007B0007F916F915F914F913F912F910F900FBE5D
:1007C0000F901F901895C0FFECCF8091E2008E7EB5
:1007D00080618093E2008091E1008E7E8093E10051
:1007E000809175018E7E8160DACF1F920F920FB6D5
:1007F0000F921124CF92DF92EF92FF920F931F93EB
:100800002F933F934F935F936F937F938F939F9318
:10081000AF93BF93EF93FF93CF93DF93CDB7DEB743
:100820006C97DEBFCDBF1092E9008091E80083FF96
:1008300025C068E0CE0145960E94FC0182EF8093BE
:10084000E8008D8987FF39C09091E80090FFFCCFC8
:10085000982F907609F034C19E894F89588D2F8941
:10086000F88C911131C0803861F5809176018093C8
:10087000F1001092F1008EEF8093E8006C960FB6B5
:10088000F894DEBF0FBECDBFDF91CF91FF91EF9106
:10089000BF91AF919F918F917F916F915F914F9198
:1008A0003F912F911F910F91FF90EF90DF90CF908C
:1008B0000F900FBE0F901F9018959EEF9093E80039
:1008C000C7CF1092F100D5CF913059F48111D3CF19
:1008D0004130510581F6809176018D7F80937601BC
:1008E000CACF933049F48111C6CF4130510519F672
:1008F000809176018260F2CF953041F48091E800DA
:1009000080FFFCCF20682093E300B5CF963009F03C
:10091000A9C00B8D1C8D22E01092E900109272018B
:1009200010927101F2122EC01092700110926F019C
:100930000E94CB011F8299E09983FA8291E09E8305
:1009400090EA98879AEF998720917101309172010E
:10095000275F3F4F3C832B838D831092E9001092D9
:100960007201109271011093700100936F0149E0C0
:1009700050E0BE016F5F7F4F80E00E94A5010E94A2
:10098000CB0179CF1093700100936F010E942E016B
:10099000DC0112960D911C910115110509F451C14C
:1009A000D801ED91FC910480F581E02DBE016B5ED4
:1009B0007F4FC8010995009709F03EC1F8010085F5
:1009C0001185EACFF3E0FF120EC08F89882309F466
:1009D00040C0823061F440E86FE080E191E00E9425
:1009E0007201811148CF81E28093EB0047CF8130C3
:1009F00029F440E86BE084E091E0F1CF833099F78F
:100A00000E942E01DC011296ED90FC908E010F5F8A
:100A10001F4F6801E114F10479F0D701ED91FC91C9
:100A20000680F781E02DB801C7010995080F111D57
:100A3000F701E084F184EECFD8011C92F601019019
:100A40000020E9F73197BF016C197D0940E0C6012C
:100A5000C6CF6EEE70E0FB01449150E080E80E944A
:100A6000A50109CF973009F4BECF983021F481E079
:100A70008093F10000CF993009F0FDCE837009F02A
:100A8000B2CFEDE0F1E081E031E096E32191222365
:100A900071F08093E9003093EB00DF0111972C9106
:100AA0002093EC009093ED008F5F873079F78EE70D
:100AB0008093EA001092EA008F8980938802DBCE4F
:100AC0008B8D9C8D1092E900109272011092710131
:100AD0009093700180936F01898D811192C08E89EE
:100AE0009D89913A49F4813209F07DCF47E050E089
:100AF00064E071E080E0B3CF913209F074CF8332CB
:100B000069F48F89988DB0E0A0E080930001909304
:100B10000101A0930201B0930301ADCE803269F4CC
:100B20008091E80082FFFCCF67E084E091E00E94C2
:100B3000FC018BEF8093E8009ECE823209F09BCEC1
:100B40008F8980930B01EEEFFFE7859194918B3FA6
:100B50009C4D51F1E0E0F8E0809104019091050195
:100B6000A0910601B0910701803B9440A105B10519
:100B7000F1F480910B0180FD1AC0EE3F8AE0F80786
:100B800089F587E797E79183808380916000809360
:100B9000730188E19BE00FB6F894A89580936000FC
:100BA0000FBE9093600067CEEEEFFAE0D5CF808164
:100BB00091818737974709F05ECEA89580916000B4
:100BC0008861809360008091730180936000EE3FA4
:100BD0002AE0F20789F08091FE0A9091FF0A918342
:100BE000808349CE808191818737980751F2909315
:100BF000FF0A8093FE0AC5CF1092FF0A1092FE0AE8
:100C00003ACE0E942E01DC0112960D911C91011525
:100C1000110509F4E8CED801ED91FC910190F08125
:100C2000E02DBE016B5E7F4FC8010995811123CE77
:100C3000F80100851185EBCF181619060CF41BCEB0
:100C4000D2CEF1E0FF12BECE62EF70E004CF1F9271
:100C50000F920FB60F9211242F933F938F939F9370
:100C6000AF93BF938091770190917801A091790122
:100C7000B0917A0130916A0123E0230F2D3758F5A6
:100C80000196A11DB11D20936A0180937701909375
:100C90007801A0937901B0937A0180916B019091D2
:100CA0006C01A0916D01B0916E010196A11DB11D65
:100CB00080936B0190936C01A0936D01B0936E01D2
:100CC000BF91AF919F918F913F912F910F900FBE48
:100CD0000F901F90189526E8230F0296A11DB11DB5
:100CE000D2CFE9E8F2E01382128288EE93E0A0E02E
:100CF000B0E084839583A683B78387E191E09183F5
:100D000080838FEF9FEF95878487A9EDB2E082E023
:100D100015968C93159786E116968C931697EDE5AC
:100D2000F1E0E4911796EC931797EEE3F1E0E4918C
:100D30001896EC93189740E85EE360E070E01D962B
:100D40004D935D936D937C9350970895789484B5FB
:100D5000826084BD84B5816084BD85B5826085BDB7
:100D600085B5816085BD80916E00816080936E0045
:100D70001092810080918100826080938100809137
:100D800081008160809381008091800081608093E8
:100D90008000809191008260809391008091910009
:100DA0008160809391008091900081608093900099
:100DB0008091C10084608093C1008091C1008260F5
:100DC0008093C1008091C10081608093C1008091B7
:100DD000C30081608093C3008091C00082608093D3
:100DE000C0008091C20081608093C20080917A002F
:100DF000846080937A0080917A00826080937A0088
:100E000080917A00816080937A0080917A00806876
:100E100080937A00109288021092760110927501E8
:100E20008091D70081608093D70080EA8093D800BA
:100E300089B5806189BD89B5826089BD09B400FE2C
:100E4000FDCF61E070E080E090E00E94A40280911C
:100E5000D8008F7C80618093D8008091E000807FF3
:100E60008093E0008091E1008E7E8093E1008DE030
:100E70008093E200559A209A8FEF9FEF909396020D
:100E80008093950288E291E00E945B0389E391E000
:100E90000E945B038091DE0290E0FC01E55AFE4F68
:100EA0002491845C9E4FFC0184918823C1F090E0E2
:100EB000880F991FFC01E25DFE4FC591D491FC01A2
:100EC000E05EFE4FA591B4919FB7F8943881822FD0
:100ED000809583238883EC91E22BEC939FBF2FB7FF
:100EE000F8948091770190917801A0917901B09167
:100EF0007A012FBF805D9740A109B1098093E2027A
:100F00009093E302A093E402B093E50287E3809319
:100F1000EB020BE711E0E12CFF24F39420E0C22E5A
:100F200020E0D22E88E591E00E945B03F801C70122
:100F300011920197E9F70E94120168EE73E080E0D8
:100F400090E00E94A4028BE7A82E81E0B82ED0E0AA
:100F5000C0E089E892E00E946502892B61F0CF3FF2
:100F6000D10549F089E892E00E942302F5018193BE
:100F70005F012196EECFC558DE4F18828BE791E0D6
:100F80000E945B0368EE73E080E090E00E94A402A0
:100F9000C114D10439F20E940000C4CFEE0FFF1F2C
:0C0FA0000590F491E02D0994F894FFCF27
:100FAC00FFFFFFFF00E100000000000000C1808196
:100FBC00000000000000000902D6021F0242016579
:100FCC0002230241020D0A005374617274696E6748
:100FDC00202E2E2E2E2E2E20005761697469696EDC
:100FEC006720666F72207565206174746163682078
:100FFC002E2E2E2E2E2E200041542B4E50494E4775
:0A100C003D382E382E382E38000033
:00000001FF
