:100000000C9453000C947B000C947B000C947B00AC
:100010000C947B000C947B000C947B000C947B0074
:100020000C947B000C947B000C947B000C947B0064
:100030000C947B000C947B000C947B000C947B0054
:100040000C940E020C947B000C947E020C945802CB
:100050000C947B000C947B000C947B000C947B0034
:100060000C947B000C947B0000000000250028000D
:100070002B0000000000240027002A0004040404D0
:100080000404040402020202020203030303030342
:10009000010204081020408001020408102001021F
:1000A00004081020B00211241FBECFEFD8E0DEBF3D
:1000B000CDBF11E0A0E0B1E0E2E0F8E002C00590C1
:1000C0000D92A635B107D9F723E0A6E5B1E001C04E
:1000D0001D92AF30B207E1F710E0C3E5D0E004C0F5
:1000E0002197FE010E94F403C235D107C9F70E948F
:1000F000FD020C94FF030C9400003FB7F89480912C
:100100005B0290915C02A0915D02B0915E0226B507
:10011000A89B05C02F3F19F00196A11DB11D3FBF3F
:10012000BA2FA92F982F8827820F911DA11DB11DCD
:10013000BC01CD0142E0660F771F881F991F4A95C9
:10014000D1F708958F929F92AF92BF92CF92DF9294
:10015000EF92FF920E947D004B015C0188EEC82E59
:1001600083E0D82EE12CF12C0E947D00DC01CB0134
:1001700088199909AA09BB09883E9340A105B105D0
:1001800098F321E0C21AD108E108F10888EE880E40
:1001900083E0981EA11CB11CC114D104E104F10438
:1001A00019F7FF90EF90DF90CF90BF90AF909F90A6
:1001B0008F900895CF92DF92EF92FF920F931F934B
:1001C000CF93DF936C017A018B01C0E0D0E0CE15B4
:1001D000DF0581F0D8016D918D01D601ED91FC9183
:1001E0000190F081E02DC6010995892B11F021962F
:1001F000EECF7E01C701DF91CF911F910F91FF904C
:10020000EF90DF90CF900895089580E090E00895FA
:10021000FC01538D448D252F30E0842F90E0821B0C
:10022000930B541710F0CF96089501970895FC0191
:10023000918D828D981761F0828DDF01A80FB11D1D
:100240005D968C91928D9F5F9F73928F90E0089541
:100250008FEF9FEF0895FC01918D828D981731F0FB
:10026000828DE80FF11D858D90E008958FEF9FEF4F
:100270000895FC01918D228D892F90E0805C9F4F25
:10028000821B91098F73992708958FE592E00E9450
:10029000390121E0892B09F420E0822F0895FC0127
:1002A000848DDF01A80FB11DA35ABF4F2C91848DFF
:1002B00090E001968F739927848FA689B7892C9334
:1002C000A089B1898C91837080648C93938D848D87
:1002D000981306C00288F389E02D80818F7D80838A
:1002E0000895EF92FF920F931F93CF93DF93EC014A
:1002F00081E0888F9B8D8C8D981305C0E889F989E2
:10030000808185FD26C0F62E0B8D10E00F5F1F4FFC
:100310000F731127E02E8C8DE8120CC00FB607FC6E
:10032000FACFE889F989808185FFF5CFCE010E9457
:100330004F01F1CF8B8DFE01E80FF11DE35AFF4F06
:10034000F0829FB7F8940B8FEA89FB8980818062E5
:100350000AC09FB7F894EE89FF896083E889F9891C
:1003600080818370806480839FBF81E090E0DF9113
:10037000CF911F910F91FF90EF900895CF93DF934E
:10038000EC01888D8823C9F0EA89FB89808185FD8D
:1003900005C0A889B9898C9186FD0FC00FB607FCEE
:1003A000F5CF808185FFF2CFA889B9898C9185FF2F
:1003B000EDCFCE010E944F01E7CFDF91CF9108959D
:1003C00080E090E0892B29F00E94450181110C9476
:1003D00000000895CF93DF93009779F0FC0101901E
:1003E0000020E9F73197AF01481B590BBC018FE59D
:1003F00092E00E94DA00EC0102C0C0E0D0E042E0EE
:1004000050E062E171E08FE592E00E94DA008C0F2B
:100410009D1FDF91CF9108950E94FA031F920F92C2
:100420000FB60F9211242F933F938F939F93AF9307
:10043000BF938091570290915802A0915902B091B8
:100440005A023091560223E0230F2D3720F40196F3
:10045000A11DB11D05C026E8230F0296A11DB11DE7
:10046000209356028093570290935802A09359020A
:10047000B0935A0280915B0290915C02A0915D0260
:10048000B0915E020196A11DB11D80935B02909315
:100490005C02A0935D02B0935E02BF91AF919F9109
:1004A0008F913F912F910F900FBE0F901F90189535
:1004B0001F920F920FB60F9211242F933F934F93D9
:1004C0005F936F937F938F939F93AF93BF93EF93BC
:1004D000FF938FE592E00E944F01FF91EF91BF9152
:1004E000AF919F918F917F916F915F914F913F91CC
:1004F0002F910F900FBE0F901F9018951F920F9283
:100500000FB60F9211242F938F939F93EF93FF9326
:10051000E0916F02F09170028081E0917502F0919C
:10052000760282FD12C09081809178028F5F8F7376
:1005300020917902821751F0E0917802F0E0E15ABF
:10054000FD4F958F8093780201C08081FF91EF91DC
:100550009F918F912F910F900FBE0F901F90189524
:10056000EFE5F2E01382128288EE93E0A0E0B0E0C3
:1005700084839583A683B78384E091E0918380830D
:1005800085EC90E09587848784EC90E09787868758
:1005900080EC90E0918B808B81EC90E0938B828B50
:1005A00082EC90E0958B848B86EC90E0978B868B29
:1005B000118E128E138E148EACEFB2E082E015967F
:1005C0008C93159786E116968C931697E2E9F0E0E6
:1005D000E4911796EC931797EEE7F0E0E491189604
:1005E000EC93189740E85EE360E070E01D964D9351
:1005F0005D936D937C9350970895789484B5826051
:1006000084BD84B5816084BD85B5826085BD85B5B6
:10061000816085BD80916E00816080936E00109234
:1006200081008091810082608093810080918100AF
:100630008160809381008091800081608093800040
:100640008091B10084608093B1008091B00081609E
:100650008093B00080917A00846080937A008091CA
:100660007A00826080937A0080917A008160809322
:100670007A0080917A00806880937A001092C1009D
:10068000E0916F02F091700282E08083E0916B0252
:10069000F0916C021082E0916D02F0916E028FEC8D
:1006A000808310927702E0917302F091740286E0E9
:1006B0008083E0917102F091720280818061808379
:1006C000E0917102F0917202808188608083E091F4
:1006D0007102F0917202808180688083E0917102E2
:1006E000F091720280818F7D808385E191E00E948C
:1006F000EA0186E291E00E94EA018091010390E024
:10070000FC01E057FF4F2491FC01E458FF4F849116
:100710008823C1F090E0880F991FFC01EE58FF4F2D
:10072000C591D491FC01E859FF4FA591B4919FB7B1
:10073000F8948881322F309583238883EC91E22BC3
:10074000EC939FBF2FB7F894809157029091580275
:10075000A0915902B0915A022FBF805D9740A10924
:10076000B1098093050390930603A0930703B09308
:10077000080387E380930E0386E5E82E81E0F82ED8
:10078000C12CDD24D39485E491E00E94EA01F701B5
:10079000C60111920197E9F78FE592E00E94BE0130
:1007A0000E94A20006E511E0C0E0D0E08FE592E0F3
:1007B0000E943901892B61F0CF3FD10549F08FE5C7
:1007C00092E00E941701F80181938F012196EECFEC
:1007D000CA5ADE4F188286E591E00E94EA010E9423
:1007E000A2000E94E001CFCFEE0FFF1F0590F49111
:1007F000E02D099481E090E0F8940C94FF03F894C4
:02080000FFCF28
:10080200000000007101DA000801BE013901170180
:100812002B010D0A005374617274696E67202E2ECB
:100822002E2E2E2E20005761697469696E6720662C
:100832006F7220756520617474616368202E2E2E9C
:100842002E2E2E200041542B4E50494E473D382E1D
:06085200382E382E38009C
:00000001FF
